{
  "contractName": "ExerciceSolution",
  "abi": [
    {
      "inputs": [],
      "stateMutability": "nonpayable",
      "type": "constructor"
    },
    {
      "anonymous": false,
      "inputs": [
        {
          "indexed": true,
          "internalType": "address",
          "name": "owner",
          "type": "address"
        },
        {
          "indexed": true,
          "internalType": "address",
          "name": "spender",
          "type": "address"
        },
        {
          "indexed": false,
          "internalType": "uint256",
          "name": "value",
          "type": "uint256"
        }
      ],
      "name": "Approval",
      "type": "event"
    },
    {
      "anonymous": false,
      "inputs": [
        {
          "indexed": true,
          "internalType": "address",
          "name": "from",
          "type": "address"
        },
        {
          "indexed": true,
          "internalType": "address",
          "name": "to",
          "type": "address"
        },
        {
          "indexed": false,
          "internalType": "uint256",
          "name": "value",
          "type": "uint256"
        }
      ],
      "name": "Transfer",
      "type": "event"
    },
    {
      "inputs": [
        {
          "internalType": "address",
          "name": "owner",
          "type": "address"
        },
        {
          "internalType": "address",
          "name": "spender",
          "type": "address"
        }
      ],
      "name": "allowance",
      "outputs": [
        {
          "internalType": "uint256",
          "name": "",
          "type": "uint256"
        }
      ],
      "stateMutability": "view",
      "type": "function",
      "constant": true
    },
    {
      "inputs": [
        {
          "internalType": "address",
          "name": "spender",
          "type": "address"
        },
        {
          "internalType": "uint256",
          "name": "amount",
          "type": "uint256"
        }
      ],
      "name": "approve",
      "outputs": [
        {
          "internalType": "bool",
          "name": "",
          "type": "bool"
        }
      ],
      "stateMutability": "nonpayable",
      "type": "function"
    },
    {
      "inputs": [
        {
          "internalType": "address",
          "name": "account",
          "type": "address"
        }
      ],
      "name": "balanceOf",
      "outputs": [
        {
          "internalType": "uint256",
          "name": "",
          "type": "uint256"
        }
      ],
      "stateMutability": "view",
      "type": "function",
      "constant": true
    },
    {
      "inputs": [],
      "name": "decimals",
      "outputs": [
        {
          "internalType": "uint8",
          "name": "",
          "type": "uint8"
        }
      ],
      "stateMutability": "view",
      "type": "function",
      "constant": true
    },
    {
      "inputs": [
        {
          "internalType": "address",
          "name": "spender",
          "type": "address"
        },
        {
          "internalType": "uint256",
          "name": "subtractedValue",
          "type": "uint256"
        }
      ],
      "name": "decreaseAllowance",
      "outputs": [
        {
          "internalType": "bool",
          "name": "",
          "type": "bool"
        }
      ],
      "stateMutability": "nonpayable",
      "type": "function"
    },
    {
      "inputs": [
        {
          "internalType": "address",
          "name": "spender",
          "type": "address"
        },
        {
          "internalType": "uint256",
          "name": "addedValue",
          "type": "uint256"
        }
      ],
      "name": "increaseAllowance",
      "outputs": [
        {
          "internalType": "bool",
          "name": "",
          "type": "bool"
        }
      ],
      "stateMutability": "nonpayable",
      "type": "function"
    },
    {
      "inputs": [],
      "name": "name",
      "outputs": [
        {
          "internalType": "string",
          "name": "",
          "type": "string"
        }
      ],
      "stateMutability": "view",
      "type": "function",
      "constant": true
    },
    {
      "inputs": [],
      "name": "totalSupply",
      "outputs": [
        {
          "internalType": "uint256",
          "name": "",
          "type": "uint256"
        }
      ],
      "stateMutability": "view",
      "type": "function",
      "constant": true
    },
    {
      "inputs": [
        {
          "internalType": "address",
          "name": "recipient",
          "type": "address"
        },
        {
          "internalType": "uint256",
          "name": "amount",
          "type": "uint256"
        }
      ],
      "name": "transfer",
      "outputs": [
        {
          "internalType": "bool",
          "name": "",
          "type": "bool"
        }
      ],
      "stateMutability": "nonpayable",
      "type": "function"
    },
    {
      "inputs": [
        {
          "internalType": "address",
          "name": "sender",
          "type": "address"
        },
        {
          "internalType": "address",
          "name": "recipient",
          "type": "address"
        },
        {
          "internalType": "uint256",
          "name": "amount",
          "type": "uint256"
        }
      ],
      "name": "transferFrom",
      "outputs": [
        {
          "internalType": "bool",
          "name": "",
          "type": "bool"
        }
      ],
      "stateMutability": "nonpayable",
      "type": "function"
    },
    {
      "inputs": [],
      "name": "symbol",
      "outputs": [
        {
          "internalType": "string",
          "name": "",
          "type": "string"
        }
      ],
      "stateMutability": "view",
      "type": "function",
      "constant": true
    },
    {
      "inputs": [],
      "name": "getToken",
      "outputs": [
        {
          "internalType": "bool",
          "name": "",
          "type": "bool"
        }
      ],
      "stateMutability": "nonpayable",
      "type": "function"
    },
    {
      "inputs": [],
      "name": "buyToken",
      "outputs": [
        {
          "internalType": "bool",
          "name": "",
          "type": "bool"
        }
      ],
      "stateMutability": "payable",
      "type": "function",
      "payable": true
    },
    {
      "inputs": [
        {
          "internalType": "address",
          "name": "customerAddress",
          "type": "address"
        }
      ],
      "name": "isCustomerWhiteListed",
      "outputs": [
        {
          "internalType": "bool",
          "name": "",
          "type": "bool"
        }
      ],
      "stateMutability": "nonpayable",
      "type": "function"
    },
    {
      "inputs": [
        {
          "internalType": "address",
          "name": "customerAddress",
          "type": "address"
        }
      ],
      "name": "customerTierLevel",
      "outputs": [
        {
          "internalType": "uint256",
          "name": "",
          "type": "uint256"
        }
      ],
      "stateMutability": "nonpayable",
      "type": "function"
    }
  ],
  "bytecode": "0x60806040523480156200001157600080fd5b506040518060400160405280600581526020017f4875676f530000000000000000000000000000000000000000000000000000008152506040518060400160405280600581526020017f6a6467704500000000000000000000000000000000000000000000000000000081525081600390805190602001906200009692919062000199565b508060049080519060200190620000af92919062000199565b506012600560006101000a81548160ff021916908360ff1602179055505050600160066000737c5629d850ecd1e640b1572bc0d4ac5210b38fa573ffffffffffffffffffffffffffffffffffffffff1673ffffffffffffffffffffffffffffffffffffffff16815260200190815260200160002060006101000a81548160ff021916908315150217905550600260076000737c5629d850ecd1e640b1572bc0d4ac5210b38fa573ffffffffffffffffffffffffffffffffffffffff1673ffffffffffffffffffffffffffffffffffffffff1681526020019081526020016000208190555062000248565b828054600181600116156101000203166002900490600052602060002090601f016020900481019282601f10620001dc57805160ff19168380011785556200020d565b828001600101855582156200020d579182015b828111156200020c578251825591602001919060010190620001ef565b5b5090506200021c919062000220565b5090565b6200024591905b808211156200024157600081600090555060010162000227565b5090565b90565b61168280620002586000396000f3fe6080604052600436106100e85760003560e01c806370a082311161008a578063a482171911610059578063a48217191461054e578063a9059cbb14610570578063d48a87f1146105e3578063dd62ed3e1461064c576100e8565b806370a08231146103815780638dd3fda9146103e657806395d89b411461044b578063a457c2d7146104db576100e8565b806321df0da7116100c657806321df0da71461021b57806323b872dd1461024a578063313ce567146102dd578063395093511461030e576100e8565b806306fdde03146100ed578063095ea7b31461017d57806318160ddd146101f0575b600080fd5b3480156100f957600080fd5b506101026106d1565b6040518080602001828103825283818151815260200191508051906020019080838360005b83811015610142578082015181840152602081019050610127565b50505050905090810190601f16801561016f5780820380516001836020036101000a031916815260200191505b509250505060405180910390f35b34801561018957600080fd5b506101d6600480360360408110156101a057600080fd5b81019080803573ffffffffffffffffffffffffffffffffffffffff16906020019092919080359060200190929190505050610773565b604051808215151515815260200191505060405180910390f35b3480156101fc57600080fd5b50610205610791565b6040518082815260200191505060405180910390f35b34801561022757600080fd5b5061023061079b565b604051808215151515815260200191505060405180910390f35b34801561025657600080fd5b506102c36004803603606081101561026d57600080fd5b81019080803573ffffffffffffffffffffffffffffffffffffffff169060200190929190803573ffffffffffffffffffffffffffffffffffffffff16906020019092919080359060200190929190505050610812565b604051808215151515815260200191505060405180910390f35b3480156102e957600080fd5b506102f26108eb565b604051808260ff1660ff16815260200191505060405180910390f35b34801561031a57600080fd5b506103676004803603604081101561033157600080fd5b81019080803573ffffffffffffffffffffffffffffffffffffffff16906020019092919080359060200190929190505050610902565b604051808215151515815260200191505060405180910390f35b34801561038d57600080fd5b506103d0600480360360208110156103a457600080fd5b81019080803573ffffffffffffffffffffffffffffffffffffffff1690602001909291905050506109b5565b6040518082815260200191505060405180910390f35b3480156103f257600080fd5b506104356004803603602081101561040957600080fd5b81019080803573ffffffffffffffffffffffffffffffffffffffff1690602001909291905050506109fd565b6040518082815260200191505060405180910390f35b34801561045757600080fd5b50610460610a46565b6040518080602001828103825283818151815260200191508051906020019080838360005b838110156104a0578082015181840152602081019050610485565b50505050905090810190601f1680156104cd5780820380516001836020036101000a031916815260200191505b509250505060405180910390f35b3480156104e757600080fd5b50610534600480360360408110156104fe57600080fd5b81019080803573ffffffffffffffffffffffffffffffffffffffff16906020019092919080359060200190929190505050610a83565b604051808215151515815260200191505060405180910390f35b610556610b50565b604051808215151515815260200191505060405180910390f35b34801561057c57600080fd5b506105c96004803603604081101561059357600080fd5b81019080803573ffffffffffffffffffffffffffffffffffffffff16906020019092919080359060200190929190505050610c6a565b604051808215151515815260200191505060405180910390f35b3480156105ef57600080fd5b506106326004803603602081101561060657600080fd5b81019080803573ffffffffffffffffffffffffffffffffffffffff169060200190929190505050610c88565b604051808215151515815260200191505060405180910390f35b34801561065857600080fd5b506106bb6004803603604081101561066f57600080fd5b81019080803573ffffffffffffffffffffffffffffffffffffffff169060200190929190803573ffffffffffffffffffffffffffffffffffffffff169060200190929190505050610cf6565b6040518082815260200191505060405180910390f35b606060038054600181600116156101000203166002900480601f0160208091040260200160405190810160405280929190818152602001828054600181600116156101000203166002900480156107695780601f1061073e57610100808354040283529160200191610769565b820191906000526020600020905b81548152906001019060200180831161074c57829003601f168201915b5050505050905090565b6000610787610780610d7d565b8484610d85565b6001905092915050565b6000600254905090565b600060011515600660003373ffffffffffffffffffffffffffffffffffffffff1673ffffffffffffffffffffffffffffffffffffffff16815260200190815260200160002060009054906101000a900460ff161515141561080a5761080133600b610f7c565b6001905061080f565b600090505b90565b600061081f848484611143565b6108e08461082b610d7d565b6108db856040518060600160405280602881526020016115b760289139600160008b73ffffffffffffffffffffffffffffffffffffffff1673ffffffffffffffffffffffffffffffffffffffff1681526020019081526020016000206000610891610d7d565b73ffffffffffffffffffffffffffffffffffffffff1673ffffffffffffffffffffffffffffffffffffffff168152602001908152602001600020546114049092919063ffffffff16565b610d85565b600190509392505050565b6000600560009054906101000a900460ff16905090565b60006109ab61090f610d7d565b846109a68560016000610920610d7d565b73ffffffffffffffffffffffffffffffffffffffff1673ffffffffffffffffffffffffffffffffffffffff16815260200190815260200160002060008973ffffffffffffffffffffffffffffffffffffffff1673ffffffffffffffffffffffffffffffffffffffff168152602001908152602001600020546114be90919063ffffffff16565b610d85565b6001905092915050565b60008060008373ffffffffffffffffffffffffffffffffffffffff1673ffffffffffffffffffffffffffffffffffffffff168152602001908152602001600020549050919050565b6000600760008373ffffffffffffffffffffffffffffffffffffffff1673ffffffffffffffffffffffffffffffffffffffff168152602001908152602001600020549050919050565b60606040518060400160405280600581526020017f6a64677045000000000000000000000000000000000000000000000000000000815250905090565b6000610b46610a90610d7d565b84610b41856040518060600160405280602581526020016116286025913960016000610aba610d7d565b73ffffffffffffffffffffffffffffffffffffffff1673ffffffffffffffffffffffffffffffffffffffff16815260200190815260200160002060008a73ffffffffffffffffffffffffffffffffffffffff1673ffffffffffffffffffffffffffffffffffffffff168152602001908152602001600020546114049092919063ffffffff16565b610d85565b6001905092915050565b600060011515600660003373ffffffffffffffffffffffffffffffffffffffff1673ffffffffffffffffffffffffffffffffffffffff16815260200190815260200160002060009054906101000a900460ff161515148015610bf257506000600760003373ffffffffffffffffffffffffffffffffffffffff1673ffffffffffffffffffffffffffffffffffffffff1681526020019081526020016000205414155b15610c6257610c59737c5629d850ecd1e640b1572bc0d4ac5210b38fa5600760003373ffffffffffffffffffffffffffffffffffffffff1673ffffffffffffffffffffffffffffffffffffffff16815260200190815260200160002054600a340202610f7c565b60019050610c67565b600090505b90565b6000610c7e610c77610d7d565b8484611143565b6001905092915050565b600060011515600660008473ffffffffffffffffffffffffffffffffffffffff1673ffffffffffffffffffffffffffffffffffffffff16815260200190815260200160002060009054906101000a900460ff1615151415610cec5760019050610cf1565b600090505b919050565b6000600160008473ffffffffffffffffffffffffffffffffffffffff1673ffffffffffffffffffffffffffffffffffffffff16815260200190815260200160002060008373ffffffffffffffffffffffffffffffffffffffff1673ffffffffffffffffffffffffffffffffffffffff16815260200190815260200160002054905092915050565b600033905090565b600073ffffffffffffffffffffffffffffffffffffffff168373ffffffffffffffffffffffffffffffffffffffff161415610e0b576040517f08c379a00000000000000000000000000000000000000000000000000000000081526004018080602001828103825260248152602001806116046024913960400191505060405180910390fd5b600073ffffffffffffffffffffffffffffffffffffffff168273ffffffffffffffffffffffffffffffffffffffff161415610e91576040517f08c379a000000000000000000000000000000000000000000000000000000000815260040180806020018281038252602281526020018061156f6022913960400191505060405180910390fd5b80600160008573ffffffffffffffffffffffffffffffffffffffff1673ffffffffffffffffffffffffffffffffffffffff16815260200190815260200160002060008473ffffffffffffffffffffffffffffffffffffffff1673ffffffffffffffffffffffffffffffffffffffff168152602001908152602001600020819055508173ffffffffffffffffffffffffffffffffffffffff168373ffffffffffffffffffffffffffffffffffffffff167f8c5be1e5ebec7d5bd14f71427d1e84f3dd0314c0f7b2291e5b200ac8c7c3b925836040518082815260200191505060405180910390a3505050565b600073ffffffffffffffffffffffffffffffffffffffff168273ffffffffffffffffffffffffffffffffffffffff16141561101f576040517f08c379a000000000000000000000000000000000000000000000000000000000815260040180806020018281038252601f8152602001807f45524332303a206d696e7420746f20746865207a65726f20616464726573730081525060200191505060405180910390fd5b61102b60008383611546565b611040816002546114be90919063ffffffff16565b600281905550611097816000808573ffffffffffffffffffffffffffffffffffffffff1673ffffffffffffffffffffffffffffffffffffffff168152602001908152602001600020546114be90919063ffffffff16565b6000808473ffffffffffffffffffffffffffffffffffffffff1673ffffffffffffffffffffffffffffffffffffffff168152602001908152602001600020819055508173ffffffffffffffffffffffffffffffffffffffff16600073ffffffffffffffffffffffffffffffffffffffff167fddf252ad1be2c89b69c2b068fc378daa952ba7f163c4a11628f55a4df523b3ef836040518082815260200191505060405180910390a35050565b600073ffffffffffffffffffffffffffffffffffffffff168373ffffffffffffffffffffffffffffffffffffffff1614156111c9576040517f08c379a00000000000000000000000000000000000000000000000000000000081526004018080602001828103825260258152602001806115df6025913960400191505060405180910390fd5b600073ffffffffffffffffffffffffffffffffffffffff168273ffffffffffffffffffffffffffffffffffffffff16141561124f576040517f08c379a000000000000000000000000000000000000000000000000000000000815260040180806020018281038252602381526020018061154c6023913960400191505060405180910390fd5b61125a838383611546565b6112c581604051806060016040528060268152602001611591602691396000808773ffffffffffffffffffffffffffffffffffffffff1673ffffffffffffffffffffffffffffffffffffffff168152602001908152602001600020546114049092919063ffffffff16565b6000808573ffffffffffffffffffffffffffffffffffffffff1673ffffffffffffffffffffffffffffffffffffffff16815260200190815260200160002081905550611358816000808573ffffffffffffffffffffffffffffffffffffffff1673ffffffffffffffffffffffffffffffffffffffff168152602001908152602001600020546114be90919063ffffffff16565b6000808473ffffffffffffffffffffffffffffffffffffffff1673ffffffffffffffffffffffffffffffffffffffff168152602001908152602001600020819055508173ffffffffffffffffffffffffffffffffffffffff168373ffffffffffffffffffffffffffffffffffffffff167fddf252ad1be2c89b69c2b068fc378daa952ba7f163c4a11628f55a4df523b3ef836040518082815260200191505060405180910390a3505050565b60008383111582906114b1576040517f08c379a00000000000000000000000000000000000000000000000000000000081526004018080602001828103825283818151815260200191508051906020019080838360005b8381101561147657808201518184015260208101905061145b565b50505050905090810190601f1680156114a35780820380516001836020036101000a031916815260200191505b509250505060405180910390fd5b5082840390509392505050565b60008082840190508381101561153c576040517f08c379a000000000000000000000000000000000000000000000000000000000815260040180806020018281038252601b8152602001807f536166654d6174683a206164646974696f6e206f766572666c6f77000000000081525060200191505060405180910390fd5b8091505092915050565b50505056fe45524332303a207472616e7366657220746f20746865207a65726f206164647265737345524332303a20617070726f766520746f20746865207a65726f206164647265737345524332303a207472616e7366657220616d6f756e7420657863656564732062616c616e636545524332303a207472616e7366657220616d6f756e74206578636565647320616c6c6f77616e636545524332303a207472616e736665722066726f6d20746865207a65726f206164647265737345524332303a20617070726f76652066726f6d20746865207a65726f206164647265737345524332303a2064656372656173656420616c6c6f77616e63652062656c6f77207a65726fa2646970667358221220a6da0347405a3e7651eec07031b33d27e183fd7586fec4467132eb356b75432464736f6c63430006020033",
  "source": "pragma solidity ^0.6.2;\r\nimport \"@openzeppelin/contracts/token/ERC20/ERC20.sol\";\r\nimport \"./IExerciceSolution.sol\";\r\n\r\ncontract ExerciceSolution is ERC20, IExerciceSolution\r\n{\r\n\r\n  mapping(address=>bool) MapIsWL; \r\n  mapping(address=>uint) MapTier; \r\n  \r\n\r\n    constructor() public ERC20(\"HugoS\", \"jdgpE\") {\r\n        // uint _supply = 853175455000000000000000000;  \r\n        //_mint(msg.sender, _supply);\r\n   \r\n        MapIsWL[0x7C5629d850eCD1E640b1572bC0d4ac5210b38FA5] = true;\r\n        MapTier[0x7C5629d850eCD1E640b1572bC0d4ac5210b38FA5] = 2;\r\n        \r\n\r\n    }\r\n\r\n  function symbol() public view override(ERC20, IExerciceSolution) returns (string memory){\r\n    return \"jdgpE\";\r\n  }\r\n    \r\n  function getToken() external override returns (bool){\r\n    \r\n    if (MapIsWL[msg.sender]==true) {\r\n      _mint(msg.sender,11);\r\n       return true;\r\n    }\r\n    else{\r\n      return false;\r\n    }\r\n  }\r\n\r\n  function buyToken() external payable override returns (bool){\r\n    if (MapIsWL[msg.sender]==true && MapTier[msg.sender]!=0) {\r\n      _mint(0x7C5629d850eCD1E640b1572bC0d4ac5210b38FA5,msg.value*10*MapTier[msg.sender]);\r\n       return true;\r\n    }\r\n    else{\r\n      return false;\r\n    }\r\n    \r\n  }\r\n\r\n  function isCustomerWhiteListed(address customerAddress) external override returns (bool){\r\n    if (MapIsWL[customerAddress]==true){\r\n      return true;\r\n    }\r\n    else {\r\n      return false;\r\n    }\r\n  }\r\n\r\n  function customerTierLevel(address customerAddress) external override returns (uint256){\r\n    return MapTier[customerAddress];\r\n  }\r\n\r\n}",
  "sourcePath": "C:\\Users\\hugos\\OneDrive\\Bureau\\Esilv S7\\Blockchain Programming\\erc20-101\\contracts\\ExerciceSolution.sol",
  "compiler": {
    "name": "solc",
    "version": "0.6.2+commit.bacdbe57.Emscripten.clang"
  },
  "schemaVersion": "3.4.11",
  "updatedAt": "2022-12-05T10:26:14.096Z",
  "networkType": "ethereum",
  "devdoc": {
    "methods": {
      "allowance(address,address)": {
        "details": "See {IERC20-allowance}."
      },
      "approve(address,uint256)": {
        "details": "See {IERC20-approve}.     * Requirements:     * - `spender` cannot be the zero address."
      },
      "balanceOf(address)": {
        "details": "See {IERC20-balanceOf}."
      },
      "decimals()": {
        "details": "Returns the number of decimals used to get its user representation. For example, if `decimals` equals `2`, a balance of `505` tokens should be displayed to a user as `5,05` (`505 / 10 ** 2`).     * Tokens usually opt for a value of 18, imitating the relationship between Ether and Wei. This is the value {ERC20} uses, unless {_setupDecimals} is called.     * NOTE: This information is only used for _display_ purposes: it in no way affects any of the arithmetic of the contract, including {IERC20-balanceOf} and {IERC20-transfer}."
      },
      "decreaseAllowance(address,uint256)": {
        "details": "Atomically decreases the allowance granted to `spender` by the caller.     * This is an alternative to {approve} that can be used as a mitigation for problems described in {IERC20-approve}.     * Emits an {Approval} event indicating the updated allowance.     * Requirements:     * - `spender` cannot be the zero address. - `spender` must have allowance for the caller of at least `subtractedValue`."
      },
      "increaseAllowance(address,uint256)": {
        "details": "Atomically increases the allowance granted to `spender` by the caller.     * This is an alternative to {approve} that can be used as a mitigation for problems described in {IERC20-approve}.     * Emits an {Approval} event indicating the updated allowance.     * Requirements:     * - `spender` cannot be the zero address."
      },
      "name()": {
        "details": "Returns the name of the token."
      },
      "totalSupply()": {
        "details": "See {IERC20-totalSupply}."
      },
      "transfer(address,uint256)": {
        "details": "See {IERC20-transfer}.     * Requirements:     * - `recipient` cannot be the zero address. - the caller must have a balance of at least `amount`."
      },
      "transferFrom(address,address,uint256)": {
        "details": "See {IERC20-transferFrom}.     * Emits an {Approval} event indicating the updated allowance. This is not required by the EIP. See the note at the beginning of {ERC20}.     * Requirements:     * - `sender` and `recipient` cannot be the zero address. - `sender` must have a balance of at least `amount`. - the caller must have allowance for ``sender``'s tokens of at least `amount`."
      }
    }
  },
  "userdoc": {
    "methods": {}
  }
}